:020000040800F2
:10000000000A00207D0A0008DD0A0008DD0A000859
:10001000DD0A0008DD0A0008DD0A00080000000013
:10002000000000000000000000000000DD0A0008E1
:10003000DD0A000800000000DD0A0008DD0A0008F3
:10004000DD0A0008DD0A0008DD0A0008DD0A0008F4
:10005000DD0A0008DD0A0008DD0A0008DD0A0008E4
:10006000DD0A0008DD0A0008DD0A0008DD0A0008D4
:10007000DD0A0008DD0A0008DD0A0008DD0A0008C4
:10008000DD0A0008DD0A0008DD0A0008DD0A0008B4
:10009000DD0A0008DD0A0008DD0A0008DD0A0008A4
:1000A000DD0A0008DD0A0008DD0A0008DD0A000894
:1000B000DD0A0008DD0A0008DD0A0008DD0A000884
:1000C000DD0A0008DD0A0008DD0A0008DD0A000874
:1000D000DD0A0008D50D0008DD0A0008DD0A000869
:1000E000DD0A0008DD0A0008DD0A00080000000043
:1000F0000000000000000000000000000000000000
:1001000000000000000000005FF808F180B485B036
:1001100000AF786039600023FB817B681B88FB811E
:100120007B682E4A934213D07B682D4A93420FD0AE
:100130007B68B3F1804F0BD07B682A4A934207D08B
:100140007B68294A934203D07B68284A934208D1AE
:10015000FB8923F07003FB813B685A88FB891343BA
:10016000FB817B68224A93420CD07B68214A9342F0
:1001700008D0FB8923F44073FB813B68DA88FB8954
:100180001343FB817B68FA891A803B689A887B68F5
:100190009A853B681A887B681A857B680F4A934268
:1001A0000FD07B680E4A93420BD07B68124A934271
:1001B00007D07B68114A934203D07B68104A934270
:1001C00004D13B681B7A9AB27B681A867B6801224D
:1001D0009A8200BF1437BD4680BC7047002C014096
:1001E000003401400004004000080040000C0040C2
:1001F0000010004000140040004001400044014055
:100200000048014080B485B000AF786039600023B9
:100210007B810023FB810023BB817B681B8C9BB20D
:1002200023F001039AB27B681A847B681B8CFB81E4
:100230007B689B88BB817B681B8B7B817B8923F0E0
:1002400070037B817B8923F003037B813B681A88E1
:100250007B8913437B81FB8923F00203FB813B688D
:100260001A89FB891343FB813B685A88FB89134336
:10027000FB817B68244A93420FD07B68234A9342D8
:100280000BD07B68224A934207D07B68214A934275
:1002900003D07B68204A934223D1FB8923F00803D3
:1002A000FB813B685A89FB891343FB81FB8923F05F
:1002B0000403FB813B689A88FB891343FB81BB895C
:1002C00023F48073BB81BB8923F40073BB813B683B
:1002D0009A89BB891343BB813B68DA89BB89134385
:1002E000BB817B68BA899A807B687A891A833B686C
:1002F000DA887B689A867B68FA891A8400BF14378B
:10030000BD4680BC704700BF002C01400034014056
:1003100000400140004401400048014080B485B0E5
:1003200000AF7860396000237B810023FB810023CC
:10033000BB817B681B8C9BB223F010039AB27B6855
:100340001A847B681B8CFB817B689B88BB817B68E4
:100350001B8B7B817B8923F4E0437B817B8923F4A6
:1003600040737B813B681B881B029AB27B891343D5
:100370007B81FB8923F02003FB813B681B891B01E8
:100380009AB2FB891343FB813B685B881B019AB2DD
:10039000FB891343FB817B68224A934203D07B682D
:1003A000214A93422BD1FB8923F08003FB813B68D8
:1003B0005B891B019AB2FB891343FB81FB8923F004
:1003C0004003FB813B689B881B019AB2FB89134366
:1003D000FB81BB8923F48063BB81BB8923F4006369
:1003E000BB813B689B899B009AB2BB891343BB814D
:1003F0003B68DB899B009AB2BB891343BB817B6856
:10040000BA899A807B687A891A833B68DA887B6824
:100410001A877B68FA891A8400BF1437BD4680BCEE
:10042000704700BF002C01400034014080B485B00B
:1004300000AF7860396000237B810023FB810023BB
:10044000BB817B681B8C9BB223F480739AB27B6860
:100450001A847B681B8CFB817B689B88BB817B68D3
:100460009B8B7B817B8923F070037B817B8923F0CD
:1004700003037B813B681A887B8913437B81FB895B
:1004800023F40073FB813B681B891B029AB2FB8932
:100490001343FB813B685B881B029AB2FB891343C1
:1004A000FB817B68224A934203D07B68214A9342B6
:1004B0002BD1FB8923F40063FB813B685B891B0222
:1004C0009AB2FB891343FB81FB8923F48063FB8190
:1004D0003B689B881B029AB2FB891343FB81BB8953
:1004E00023F48053BB81BB8923F40053BB813B6859
:1004F0009B891B019AB2BB891343BB813B68DB8993
:100500001B019AB2BB891343BB817B68BA899A806D
:100510007B687A899A833B68DA887B689A877B68EC
:10052000FA891A8400BF1437BD4680BC704700BFEB
:10053000002C01400034014080B485B000AF7860E9
:1005400039600023BB8100237B810023FB817B6812
:100550001B8C9BB223F480539AB27B681A847B680D
:100560001B8C7B817B689B88FB817B689B8BBB8121
:10057000BB8923F4E043BB81BB8923F44073BB8177
:100580003B681B881B029AB2BB891343BB817B89E2
:1005900023F400537B813B681B891B039AB27B8940
:1005A00013437B813B685B881B039AB27B891343AF
:1005B0007B817B68124A934203D07B68114A934245
:1005C0000AD1FB8923F48043FB813B689B899B0113
:1005D0009AB2FB891343FB817B68FA899A807B6816
:1005E000BA899A833B68DA887B68A3F840207B68E5
:1005F0007A891A8400BF1437BD4680BC704700BF9B
:10060000002C01400034014080B483B000AF78601A
:100610007B684FF6FF729A807B6800221A807B68A5
:100620000022DA807B6800225A807B6800221A72DE
:1006300000BF0C37BD4680BC704780B483B000AFAC
:1006400078600B46FB70FB78002B08D07B681B881A
:100650009BB243F001039AB27B681A8007E07B6883
:100660001B889BB223F001039AB27B681A8000BFFB
:100670000C37BD4680BC704780B485B000AF786051
:100680000B467B800023FB817B681B8BFB81FB89F6
:1006900023F00803FB81FA897B881343FB817B6885
:1006A000FA891A8300BF1437BD4680BC704780B4F6
:1006B00085B000AF78600B467B800023FB817B68B0
:1006C0001B8BFB81FB8923F40063FB817B881B026E
:1006D0009AB2FB891343FB817B68FA891A8300BFB6
:1006E0001437BD4680BC704780B485B000AF7860D9
:1006F0000B467B800023FB817B689B8BFB81FB8906
:1007000023F00803FB81FA897B881343FB817B6814
:10071000FA899A8300BF1437BD4680BC704780B405
:1007200085B000AF78600B467B800023FB817B683F
:100730009B8BFB81FB8923F40063FB817B881B027D
:100740009AB2FB891343FB817B68FA899A8300BFC5
:100750001437BD4680BC704780B584B000AFF860E8
:100760007A603B600B467B81364A7B891380354B30
:100770001822DA70334B03229A703249F86800F07D
:10078000B0F93148FFF740FF2F4B00225A802F4B22
:100790001B682F4AA2FB03239B0C9BB2013B9AB21E
:1007A000294B1A80284B64229A8027497868FFF7E2
:1007B000ADFC284B60221A80264B01225A80BB696F
:1007C0009AB2244BDA80234B00221A813B68013B0A
:1007D000032B2FD801A252F823F000BFED07000829
:1007E000FF07000811080008230800081949786865
:1007F000FFF708FD08217868FFF73EFF1AE015496A
:100800007868FFF78BFD08217868FFF750FF11E04B
:1008100010497868FFF70AFE08217868FFF764FF3F
:1008200008E00C497868FFF787FE08217868FFF731
:1008300076FF00BF01217868FFF7FFFE00BF103789
:10084000BD4680BDF0050020D40500200400002036
:1008500083DE1B43E005002080B584B002AF034671
:10086000FB710B46BB7113467B71FB79009303232D
:10087000104A01211048FFF76FFF7B790093042392
:100880000C4A02210C48FFF767FFBB790093022353
:10089000084A80210948FFF75FFF094AFB79137076
:1008A000084ABB791370084A7B79137000BF083778
:1008B000BD4680BD00040040000C0140000801401E
:1008C00000000020010000200200002080B400AFE2
:1008D000024B1B781846BD4680BC704700000020C4
:1008E00080B400AF024B1B781846BD4680BC7047F1
:1008F0000100002080B400AF024B1B781846BD46B3
:1009000080BC70470200002080B500AF154B1B680B
:10091000144A43F001031360124B5A681149124BF9
:1009200013404B600F4B1B680E4A23F0847323F473
:10093000803313600B4B1B680A4A23F48023136037
:10094000084B5B68074A23F4FE035360054B4FF4E2
:100950001F029A6000F00CF8044B4FF000629A609E
:1009600000BF80BD001002400000FFF800ED00E075
:1009700080B500AF00F002F800BF80BD80B483B046
:1009800000AF00237B6000233B603A4B1B68394A71
:1009900043F480331360374B1B6803F400333B6030
:1009A0007B6801337B603B68002B03D17B68B3F528
:1009B000A06FF0D12F4B1B6803F40033002B02D043
:1009C00001233B6001E000233B603B68012B4BD1DE
:1009D000294B1B68284A43F010031360264B1B6801
:1009E000254A23F003031360234B1B68224A43F07C
:1009F000020313601F4B1F4A5B6853601D4B1D4A67
:100A00005B6853601B4B5B681A4A43F48063536016
:100A1000184B5B68174A23F47C135360154B5B68D3
:100A2000144A43F4E8135360124B1B68114A43F015
:100A30008073136000BF0F4B1B6803F00073002B23
:100A4000F9D00C4B5B680B4A23F003035360094B4E
:100A50005B68084A43F00203536000BF054B5B68C4
:100A600003F00C03082BF9D100BF0C37BD4680BC46
:100A7000704700BF001002400020024080B582B0E5
:100A800000AF114B7B60114B3B6007E07A68131D90
:100A90007B603B68191D396012681A603B680C4A1C
:100AA0009342F3D30B480C494FF000028842B8BF81
:100AB00040F8042BFADBFFF727FF00F003FA00BF32
:100AC0000837BD4680BD00BFF91E000800000020A9
:100AD000C4050020C40500200006002080B400AF3B
:100AE000FEE780B489B000AF786039600023FB6115
:100AF00000233B610023BB610023FB6000237B617B
:100B00000023BB603B68DB7803F00F03FB613B68AD
:100B1000DB7803F01003002B05D03B689B781A4666
:100B2000FB691343FB613B681B88DBB2002B44D09D
:100B30007B681B687B610023BB6138E00122BB69D5
:100B400002FA03F3FB603B681B881A46FB681340FC
:100B50003B613A69FB689A4226D1BB699B00FB6006
:100B60000F22FB6802FA03F3BB60BB68DB437A69C0
:100B700013407B61FA69FB6802FA03F37A69134355
:100B80007B613B68DB78282B05D10122BB699A4049
:100B90007B685A6108E03B68DB78482B04D101226E
:100BA000BB699A407B681A61BB690133BB61BB6951
:100BB000072BC3D97B687A691A603B681B88FF2BB7
:100BC00046D97B685B687B610023BB613AE0BB6907
:100BD0000833012202FA03F3FB603B681B881A46C4
:100BE000FB6813403B613A69FB689A4227D1BB69B5
:100BF0009B00FB600F22FB6802FA03F3BB60BB683B
:100C0000DB437A6913407B61FA69FB6802FA03F3FC
:100C10007A6913437B613B68DB78282B05D1BB697C
:100C2000083301229A407B685A613B68DB78482B85
:100C300005D1BB69083301229A407B681A61BB6900
:100C40000133BB61BB69072BC1D97B687A695A60E4
:100C500000BF2437BD4680BC704780B483B000AF6E
:100C600078607B684FF6FF721A807B6802229A7068
:100C70007B680422DA7000BF0C37BD4680BC704729
:100C800080B483B000AF0346FB71FB7903F01F0310
:100C9000012202FA03F1054A97F907305B0942F88D
:100CA000231000BF0C37BD4680BC704700E100E058
:100CB00080B584B000AF0121042000F0A7FC2748D4
:100CC000FFF7CBFF254B02221A80244B1022DA704B
:100CD000224B03229A7021492148FFF702FF1F4B44
:100CE0001822DA701D4B4FF400721A801B491C4801
:100CF000FFF7F7FE194B0422DA70184B4FF48062AD
:100D00001A8016491648FFF7ECFE01214FF4804087
:100D100000F07CFC4FF416533B600023BB810C2396
:100D20007B8100233B810023FB800023BB803B466B
:100D300019460C4800F0A6FC012240F22551094852
:100D400000F079FD0121074800F056FD2520FFF74E
:100D500097FF00BF1037BD4680BD00BFF0050020E3
:100D6000000801400038014080B582B000AF034662
:100D7000FB8000BF4021074800F0C4FD0346002B64
:100D8000F8D0FB881946034800F09CFD00BF0837E7
:100D9000BD4680BD0038014080B584B000AF7860AA
:100DA0000023FB600AE0FB687A6813441B789BB25F
:100DB0001846FFF7D9FFFB680133FB60786800F045
:100DC00085FE0246FB689A42EDD200BF1037BD4651
:100DD00080BD000080B500AF40F22551154800F0FD
:100DE000ACFD0346012B23D1124B1B889BB203F0B1
:100DF0000F03002B19D10F4800F075FD03461A466A
:100E00000D4B1B68D1B20D4AD1540B4B1B68591CBA
:100E10000B4B83FB01235A10CB17D21A1346DB006E
:100E20001344CA1A044B1A6002E0024800F05BFD4A
:100E300000BF80BD00380140CC050020F405002033
:100E4000398EE33880B582B000AF00BF114B1A680D
:100E5000114B1B689A42F9D00E4B1B680F4AD35CAA
:100E6000FB800C4B1B68591C0D4B83FB01235A1054
:100E7000CB17D21A1346DB001344CA1A054B1A606B
:100E8000FB881846FFF770FFFB8818460837BD46F9
:100E900080BD00BFC8050020CC050020F40500205F
:100EA000398EE33880B483B000AF78607B68A3F1FB
:100EB0000103002BFBD17B6000BF0C37BD4680BC1B
:100EC0007047000080B5ADF5067D00AF002387F8C0
:100ED0001732002387F81632002387F815323B4675
:100EE000184664231A46002100F0A6FD0023C7F827
:100EF00010320023C7F80C320023C7F80832002351
:100F0000C7F804320023C7F800320023C7F8FC31C9
:100F10000023C7F8F8310023C7F8F43101210D2070
:100F200000F074FB0121022000F08EFBFFF7C0FEF1
:100F3000A248FFF731FF002200218020FFF78CFC40
:100F40009F4B1B689F4AA2FB0323DB081846FFF751
:100F5000A9FF002280210020FFF77EFC984B1B6830
:100F6000984AA2FB0323DB081846FFF79BFF802269
:100F700000210020FFF770FC914B1B68914AA2FBF7
:100F80000323DB081846FFF78DFF80228021802095
:100F9000FFF762FC802387F8153297F8153287F83F
:100FA000163297F8163287F81732FFF74BFF0346D1
:100FB00087F8143297F81432722B7CD10123C7F8CA
:100FC00000320023C7F81032FFF73CFF034687F8D2
:100FD000143297F81432302B23D097F81432312B77
:100FE0001FD097F81432322B1BD097F81432332BC2
:100FF00017D097F81432342B13D097F81432352BBE
:101000000FD097F81432362B0BD097F81432372BB9
:1010100007D097F81432382B03D097F81432392BB5
:1010200049D10123C7F80C3210E03A46D7F8103204
:10103000134497F814221A70D7F810320133C7F806
:101040001032FFF7FFFE034687F8143297F8143288
:10105000302BEAD097F81432312BE6D097F81432BF
:10106000322BE2D097F81432332BDED097F81432BB
:10107000342BDAD097F81432352BD6D097F81432B7
:10108000362BD2D097F81432372BCED097F81432B3
:10109000382BCAD097F81432392BC6D03A46D7F835
:1010A0001032134400221A703B46184600F0A0FC90
:1010B000034687F8173297F81432672B40F0C08048
:1010C0000123C7F8FC310023C7F81032FFF7BAFE3E
:1010D000034687F8143297F81432302B23D097F850
:1010E0001432312B1FD097F81432322B1BD097F8C3
:1010F0001432332B17D097F81432342B13D097F8BF
:101100001432352B0FD097F81432362B0BD097F8BA
:101110001432372B07D097F81432382B03D097F8B6
:101120001432392B50D10123C7F8083210E03A4667
:10113000D7F81032134497F814221A70D7F81032E7
:101140000133C7F81032FFF77DFE034687F81432EB
:1011500097F81432302BEAD097F81432312BE6D0BE
:1011600097F81432322BE2D097F81432332BDED0BA
:1011700097F81432342BDAD097F81432352BD6D0B6
:1011800097F81432362BD2D097F81432372BCED0B2
:1011900097F81432382BCAD097F81432392BC6D0AE
:1011A0003A46D7F81032134400221A703B461846CC
:1011B00000F01EFC034687F8163241E0441D00088B
:1011C000040000201F85EB5197F81432652B37D1AE
:1011D0000023C7F8FC31FFF735FE034687F81432C9
:1011E00097F81432742B2BD1FFF72CFE034687F8A7
:1011F000143297F814325F2B22D1FFF723FE0346F7
:1012000087F8143297F81432722B19D1FFF71AFEAF
:10121000034687F8143297F81432672B10D1FFF782
:1012200011FE034687F8143297F81432622B07D167
:10123000FFF708FE034687F814320123C7F8F4319C
:1012400097F81432622B7CD10123C7F8F8310023C0
:10125000C7F81032FFF7F6FD034687F8143297F807
:101260001432302B23D097F81432312B1FD097F83B
:101270001432322B1BD097F81432332B17D097F837
:101280001432342B13D097F81432352B0FD097F833
:101290001432362B0BD097F81432372B07D097F82F
:1012A0001432382B03D097F81432392B49D101234B
:1012B000C7F8043210E03A46D7F81032134497F8D2
:1012C00014221A70D7F810320133C7F81032FFF722
:1012D000B9FD034687F8143297F81432302BEAD060
:1012E00097F81432312BE6D097F81432322BE2D033
:1012F00097F81432332BDED097F81432342BDAD02F
:1013000097F81432352BD6D097F81432362BD2D02A
:1013100097F81432372BCED097F81432382BCAD026
:1013200097F81432392BC6D03A46D7F81032134406
:1013300000221A703B46184600F05AFB034687F815
:10134000153297F814320D2B7FF42FAED7F8F43105
:10135000002B5CD00023C7F8F831D7F8F831C7F874
:10136000FC31D7F8FC31C7F80032D7F80032C7F8A3
:101370000432D7F80432C7F80832D7F80832C7F871
:101380000C320023C7F8F4314348FFF705FDFFF79F
:101390009DFA0346184607F164030A22194600F035
:1013A00049FB07F164031846FFF7F6FC3B48FFF7DB
:1013B000F3FC3B48FFF7F0FCFFF792FA03461846B0
:1013C00007F164030A22194600F034FB07F16403B5
:1013D0001846FFF7E1FC3148FFF7DEFC3148FFF724
:1013E000DBFCFFF787FA0346184607F164030A227D
:1013F000194600F01FFB07F164031846FFF7CCFC09
:101400002648FFF7C9FC2848FFF7C6FCCDE5D7F80A
:101410000C32002B06D1D7F80032002B02D000236B
:1014200087F81732D7F80832002B06D1D7F8FC31ED
:10143000002B02D0002387F81632D7F80432002B95
:1014400006D1D7F8F831002B02D0002387F81532E7
:101450001548FFF7A1FC0023C7F8F831D7F8F83199
:10146000C7F8FC31D7F8FC31C7F80032D7F80032A2
:10147000C7F80432D7F80432C7F80832D7F8083270
:10148000C7F80C3297F8152297F8161297F817320A
:101490001846FFF7E1F988E5A81D0008B01D00080F
:1014A000B41D0008B81D0008BC1D000880B487B03A
:1014B00000AF786000237B6100233B610023FB6069
:1014C0000023BB604C4B5B6803F00C037B617B69C2
:1014D000042B07D0082B09D0002B33D17B68474A57
:1014E0001A6033E07B68454A1A602FE0424B5B6824
:1014F00003F470133B61404B5B6803F48033FB6083
:101500003B699B0C02333B61FB68002B06D13B69B6
:101510003B4A02FB03F27B681A6017E0364B5B68BC
:1015200003F40033002B06D03B69354A02FB03F27B
:101530007B681A600AE03B69304A02FB03F27B6871
:101540001A6003E07B682D4A1A6000BF2A4B5B6873
:1015500003F0F0037B617B691B097B61294A7B698E
:1015600013441B78DBB2BB607B681A68BB68DA4047
:101570007B685A60204B5B6803F4E0637B617B69A6
:101580001B0A7B611F4A7B6913441B78DBB2BB607B
:101590007B685A68BB68DA407B689A60164B5B6868
:1015A00003F460537B617B69DB0A7B61154A7B69CD
:1015B00013441B78DBB2BB607B685A68BB68DA40B7
:1015C0007B68DA600C4B5B6803F440437B617B69AA
:1015D0009B0B7B610C4A7B6913441B78DBB2BB60BD
:1015E0007B68DA68BB68B2FBF3F27B681A6100BF04
:1015F0001C37BD4680BC70470010024000127A00C4
:1016000000093D00180000202800002080B483B0AD
:1016100000AF78600B46FB70FB78002B06D0094BBF
:101620009A6908497B6813438B6106E0054B9A6908
:101630007B68DB43034913408B6100BF0C37BD4619
:1016400080BC70470010024080B483B000AF786067
:101650000B46FB70FB78002B06D0094BDA69084972
:101660007B681343CB6106E0054BDA697B68DB439B
:1016700003491340CB6100BF0C37BD4680BC7047A7
:101680000010024080B58CB000AF78603960002354
:10169000FB620023BB6200237B6200233B620023CA
:1016A000FB617B68FB617B681B8A9BB2FB62FA6A09
:1016B0004CF6FF731340FB623B68DB881A46FB6AFB
:1016C0001343FB62FB6A9AB27B681A827B689B8930
:1016D0009BB2FB62FA6A4EF6F3131340FB623B685F
:1016E0009A883B681B8913439AB23B685B89134312
:1016F0009BB21A46FB6A1343FB62FB6A9AB27B6891
:101700009A817B689B8A9BB2FB62FA6A4FF6FF4321
:101710001340FB623B689B891A46FB6A1343FB62DA
:10172000FB6A9AB27B689A8207F108031846FFF7B2
:10173000BDFEFB692E4A934202D17B69BB6201E088
:101740003B69BB627B689B899BB21BB2002B0CDAA6
:10175000BA6A13469B0013449A001A443B681B68FC
:101760005B00B2FBF3F37B620BE0BA6A13469B00AB
:1017700013449A001A443B681B689B00B2FBF3F3C6
:101780007B627B6A1B4AA2FB03235B091B01FB6292
:10179000FB6A1B09642202FB03F37A6AD31A3B62D9
:1017A0007B689B899BB21BB2002B0CDA3B6ADB0087
:1017B0003233104AA2FB03235B0903F00703FA6AE2
:1017C0001343FB620BE03B6A1B013233094AA2FB65
:1017D00003235B0903F00F03FA6A1343FB62FB6AFE
:1017E0009AB27B681A8100BF3037BD4680BD00BF0A
:1017F000003801401F85EB5180B483B000AF7860A2
:101800000B46FB70FB78002B08D07B689B899BB252
:1018100043F400539AB27B689A8107E07B689B8906
:101820009BB223F400539AB27B689A8100BF0C37B5
:10183000BD4680BC704780B487B000AF78600B466F
:101840007B8013467B7000233B610023FB600023F9
:10185000BB6000237B617B687B617B88DBB25B09BB
:10186000DBB23B617B8803F01F03FB600122FB6856
:1018700002FA03F3BB603B69012B03D17B690C3394
:101880007B6109E03B69022B03D17B6910337B61EB
:1018900002E07B6914337B617B78002B06D07B6987
:1018A00019687B69BA680A431A6006E07B6919689F
:1018B000BB68DA437B690A401A6000BF1C37BD462B
:1018C00080BC704780B483B000AF78600B467B80EB
:1018D0007B88C3F308039AB27B689A8000BF0C37F9
:1018E000BD4680BC704780B483B000AF78607B6831
:1018F0009B889BB2C3F308039BB218460C37BD46C6
:1019000080BC704780B485B000AF78600B467B80A8
:101910000023FB737B681B889AB27B8813409BB2C1
:10192000002B02D00123FB7301E00023FB73FB7B40
:1019300018461437BD4680BC704780B487B000AFEE
:1019400078600B467B800023FB6000237B610023D3
:10195000BB600023FB747B88DBB25B09DBB2BB603E
:101960007B8803F01F037B6101227B6902FA03F38A
:101970007B61BB68012B07D17B689B899BB21A46B0
:101980007B6913407B6111E0BB68022B07D17B6848
:101990001B8A9BB21A467B6913407B6106E07B6819
:1019A0009B8A9BB21A467B6913407B617B881B0A2A
:1019B0009BB2FB600122FB6802FA03F3FB607B68C9
:1019C0001B889BB21A46FB681340FB607B69002BA7
:1019D00005D0FB68002B02D00123FB7401E000233B
:1019E000FB74FB7C18461C37BD4680BC704700006A
:1019F0000A22002100F02AB9931E222B16D80A2AA7
:101A000010B506D00B460C46194600F035F92046B5
:101A100010BD0028F6DA0B462D2403F8014B0C46C6
:101A20004042194600F028F9204610BD00200870F9
:101A3000704700BFFFF7E0BFF0B4860743D0541EE5
:101A4000002A3ED0CAB2034602E014F1FF3438D374
:101A500003F8012B9D07F8D1032C2BD9CDB245EA11
:101A600005250F2C45EA054516D9A4F110073F09B5
:101A700003F1200606EB071603F1100242E90455B4
:101A800042E902551032B242F8D104F00F04013796
:101A9000032C03EB07130DD91E462246043A032AF2
:101AA00046F8045BFAD8221F22F0030204321344E2
:101AB00004F003042CB1C9B21C4403F8011B9C427E
:101AC000FBD1F0BC704714460346C5E720F0030184
:101AD00010F00300C0F1000051F8043B00F1040CC9
:101AE0004FEACC0C6FF000021CBF22FA0CF2134339
:101AF0004FF0010C4CEA0C2C4CEA0C4CA3EB0C0202
:101B000022EA030212EACC1204BF51F8043B04306B
:101B1000F4D0C2F1000102EA0102B2FA82F2C2F18B
:101B20001F0200EBD20070472DE9F84F0E468046A9
:101B3000174699460D4600E025462C460A9814F8AB
:101B400001BB00F0D9F85844417811F00801F3D1F5
:101B5000BBF12D0F57D0BBF12B0F04BF95F801B08F
:101B6000AC1CB9F1000F04D0B9F1100F50D0CC4625
:101B700005E0BBF1300F55D04FF00A09CC460029E3
:101B80000CBF6FF0004E4FF0004E0025BEFBFCF383
:101B900028460CFB13EA05E029D001250CFB0020A8
:101BA00014F801BBABF13002092A05D9ABF14102AF
:101BB000192A0BD8ABF1370291450FDDB5F1FF3F84
:101BC000EED08342E8D24FF0FF35E9E7ABF1610296
:101BD000192A03D8ABF157029145EFDC6B1C0BD0EF
:101BE00001B140420FB14DBB3E60BDE8F88F924558
:101BF000D3DA4FF0FF35D3E72223C8F80030FFB126
:101C00007046661EF0E7AC1C95F801B00121A8E70C
:101C1000BBF1300FABD1237803F0DF03582B06D094
:101C2000CC46ACE7237803F0DF03582B0AD14FF002
:101C3000100C94F801B0E1460234A0E78646DFE7D5
:101C40007046D2E74FF00809CC4698E7084B70B5CC
:101C50001D68084E6C6B82B0002C08BF34461346DA
:101C600000940A4601462846FFF75EFF02B070BDA9
:101C70002C00002058040020F0B48AB06E461746AD
:101C8000DFF870C004460D46BCE80F000FC6BCE884
:101C90000F000FC69CE80300BB1E46F8040B222B66
:101CA000317023D8691E0846002200E01A46B4FBB2
:101CB000F7F307FB13440AAE344414F8286C1C46AF
:101CC00000F8016F531C002CF0D1EC5452B12B449E
:101CD000013411F8016F13F8017D101B84420F705D
:101CE0001E70F5DB28460AB0F0BC70470020287053
:101CF000F9E700BFC01D0008D0F8EC00704700BF36
:101D000082B049B15AB16BB113780B601278101CD4
:101D100018BF012002B0704701A9002AF3D1104674
:101D200002B070476FF00100F4E700BF19B1FF2A5D
:101D300003D80A700121084670478A234FF0FF310B
:101D40000360F8E70D2072207265645F7061727441
:101D5000206720677265656E5F7061727420206213
:101D600020626C75655F70617274200A0D20636F6C
:101D70006C6F75725F70617274202D20696E74656E
:101D8000676572206E756D6265722C200A0D206584
:101D900078616D706C65207232353620673132346F
:101DA00020623537200A20000A0D20723A00000018
:101DB0000900000020673A0020623A000A0D000086
:101DC00030313233343536373839616263646566B1
:101DD0006768696A6B6C6D6E6F707172737475761B
:101DE0007778797A0000000043000000504F534993
:101DF000580000002E00000000202020202020207D
:101E000020202828282828202020202020202020AA
:101E100020202020202020202088101010101010BA
:101E20001010101010101010100404040404040406
:101E300004040410101010101010414141414141A0
:101E40000101010101010101010101010101010182
:101E50000101010110101010101042424242424292
:101E60000202020202020202020202020202020252
:101E700002020202101010102000000000000000FA
:101E80000000000000000000000000000000000052
:101E90000000000000000000000000000000000042
:101EA0000000000000000000000000000000000032
:101EB0000000000000000000000000000000000022
:101EC0000000000000000000000000000000000012
:101ED0000000000000000000000000000000000002
:101EE00000000000000000000000000000000000F2
:091EF000000000000000000000E9
:101EF9008080800000A24A04000000000000000069
:101F09000102030406070809000000000102030496
:101F1900010203040607080902040608300000202C
:101F2900000000001C03002084030020EC030020B3
:101F39000000000000000000000000000000000098
:101F49000000000000000000000000000000000088
:101F59000000000000000000000000000000000078
:101F69000000000000000000000000000000000068
:101F79000000000000000000000000000000000058
:101F89000000000000000000000000000000000048
:101F99000000000000000000000000000000000038
:101FA9000000000000000000000000000000000028
:101FB9000000000000000000000000000000000018
:101FC9000000000000000000010000000000000007
:101FD9000E33CDAB34126DE6ECDE05000B000000CC
:101FE90000000000000000000000000000000000E8
:101FF90000000000000000000000000000000000D8
:1020090000000000000000000000000000000000C7
:1020190000000000000000000000000000000000B7
:102349000000000000000000430000000000000041
:102359000000000000000000000000000000000074
:102369000000000000000000430000000000000021
:102379000000000000000000000000000000000054
:102389000000000000000000430000000000000001
:102399000000000000000000000000000000000034
:1023A90000000000000000004300000000000000E1
:1023B9000000000000000000000000000000000014
:1023C90000000000000000004300000000000000C1
:1023D90000000000000000000000000000000000F4
:1023E90000000000000000004300000000000000A1
:1023F90000000000000000000000000000000000D4
:102409000000000000000000430000000000000080
:1024190000000000000000000000000000000000B3
:1024290000000000000000002D1D0008011D00082B
:1024390000000000F81D0008F41D0008E41D000854
:10244900E41D0008E41D0008E41D0008E41D00085F
:10245900E41D0008E41D0008E41D0008E41D00084F
:10246900FFFFFFFFFFFFFFFFFFFFFFFFFFFF000071
:1024790001004153434949000000000000000000E9
:102489000000000000000000000000000000000043
:1024990000004153434949000000000000000000CA
:1024A9000000000000000000000000000000000023
:0424B900000000001F
:0400000508000000EF
:00000001FF
